{
  "contractName": "Campaign",
  "abi": [
    {
      "inputs": [
        {
          "internalType": "string",
          "name": "_description",
          "type": "string"
        },
        {
          "internalType": "uint256",
          "name": "_minimum",
          "type": "uint256"
        },
        {
          "internalType": "address",
          "name": "creator",
          "type": "address"
        }
      ],
      "stateMutability": "nonpayable",
      "type": "constructor"
    },
    {
      "anonymous": false,
      "inputs": [
        {
          "indexed": false,
          "internalType": "uint256",
          "name": "id",
          "type": "uint256"
        },
        {
          "indexed": false,
          "internalType": "string",
          "name": "hash",
          "type": "string"
        },
        {
          "indexed": false,
          "internalType": "string",
          "name": "description",
          "type": "string"
        }
      ],
      "name": "ImageCreated",
      "type": "event"
    },
    {
      "inputs": [
        {
          "internalType": "address",
          "name": "",
          "type": "address"
        }
      ],
      "name": "approvals",
      "outputs": [
        {
          "internalType": "bool",
          "name": "",
          "type": "bool"
        }
      ],
      "stateMutability": "view",
      "type": "function"
    },
    {
      "inputs": [
        {
          "internalType": "address",
          "name": "",
          "type": "address"
        }
      ],
      "name": "approvers",
      "outputs": [
        {
          "internalType": "bool",
          "name": "",
          "type": "bool"
        }
      ],
      "stateMutability": "view",
      "type": "function"
    },
    {
      "inputs": [],
      "name": "approversCount",
      "outputs": [
        {
          "internalType": "uint256",
          "name": "",
          "type": "uint256"
        }
      ],
      "stateMutability": "view",
      "type": "function"
    },
    {
      "inputs": [
        {
          "internalType": "address",
          "name": "",
          "type": "address"
        }
      ],
      "name": "cancelledCampaigns",
      "outputs": [
        {
          "internalType": "bool",
          "name": "",
          "type": "bool"
        }
      ],
      "stateMutability": "view",
      "type": "function"
    },
    {
      "inputs": [],
      "name": "description",
      "outputs": [
        {
          "internalType": "string",
          "name": "",
          "type": "string"
        }
      ],
      "stateMutability": "view",
      "type": "function"
    },
    {
      "inputs": [],
      "name": "imageCount",
      "outputs": [
        {
          "internalType": "uint256",
          "name": "",
          "type": "uint256"
        }
      ],
      "stateMutability": "view",
      "type": "function"
    },
    {
      "inputs": [
        {
          "internalType": "uint256",
          "name": "",
          "type": "uint256"
        }
      ],
      "name": "images",
      "outputs": [
        {
          "internalType": "uint256",
          "name": "id",
          "type": "uint256"
        },
        {
          "internalType": "string",
          "name": "hash",
          "type": "string"
        },
        {
          "internalType": "string",
          "name": "description",
          "type": "string"
        }
      ],
      "stateMutability": "view",
      "type": "function"
    },
    {
      "inputs": [],
      "name": "manager",
      "outputs": [
        {
          "internalType": "address",
          "name": "",
          "type": "address"
        }
      ],
      "stateMutability": "view",
      "type": "function"
    },
    {
      "inputs": [],
      "name": "minimumContribution",
      "outputs": [
        {
          "internalType": "uint256",
          "name": "",
          "type": "uint256"
        }
      ],
      "stateMutability": "view",
      "type": "function"
    },
    {
      "inputs": [
        {
          "internalType": "uint256",
          "name": "",
          "type": "uint256"
        }
      ],
      "name": "requests",
      "outputs": [
        {
          "internalType": "string",
          "name": "description",
          "type": "string"
        },
        {
          "internalType": "uint256",
          "name": "value",
          "type": "uint256"
        },
        {
          "internalType": "address",
          "name": "recipient",
          "type": "address"
        },
        {
          "internalType": "bool",
          "name": "complete",
          "type": "bool"
        },
        {
          "internalType": "uint256",
          "name": "approvalCount",
          "type": "uint256"
        }
      ],
      "stateMutability": "view",
      "type": "function"
    },
    {
      "inputs": [],
      "name": "contribute",
      "outputs": [],
      "stateMutability": "payable",
      "type": "function"
    },
    {
      "inputs": [
        {
          "internalType": "string",
          "name": "_description",
          "type": "string"
        },
        {
          "internalType": "uint256",
          "name": "_value",
          "type": "uint256"
        },
        {
          "internalType": "address",
          "name": "_recipient",
          "type": "address"
        }
      ],
      "name": "createRequest",
      "outputs": [],
      "stateMutability": "nonpayable",
      "type": "function"
    },
    {
      "inputs": [
        {
          "internalType": "uint256",
          "name": "_index",
          "type": "uint256"
        }
      ],
      "name": "approveRequest",
      "outputs": [],
      "stateMutability": "nonpayable",
      "type": "function"
    },
    {
      "inputs": [
        {
          "internalType": "uint256",
          "name": "_index",
          "type": "uint256"
        }
      ],
      "name": "finaliseRequest",
      "outputs": [],
      "stateMutability": "nonpayable",
      "type": "function"
    },
    {
      "inputs": [],
      "name": "getSummary",
      "outputs": [
        {
          "internalType": "uint256",
          "name": "",
          "type": "uint256"
        },
        {
          "internalType": "uint256",
          "name": "",
          "type": "uint256"
        },
        {
          "internalType": "uint256",
          "name": "",
          "type": "uint256"
        },
        {
          "internalType": "uint256",
          "name": "",
          "type": "uint256"
        },
        {
          "internalType": "address",
          "name": "",
          "type": "address"
        }
      ],
      "stateMutability": "view",
      "type": "function"
    },
    {
      "inputs": [],
      "name": "getRequestsCount",
      "outputs": [
        {
          "internalType": "uint256",
          "name": "",
          "type": "uint256"
        }
      ],
      "stateMutability": "view",
      "type": "function"
    },
    {
      "inputs": [
        {
          "internalType": "string",
          "name": "_imgHash",
          "type": "string"
        },
        {
          "internalType": "string",
          "name": "_description",
          "type": "string"
        }
      ],
      "name": "uploadImage",
      "outputs": [],
      "stateMutability": "nonpayable",
      "type": "function"
    },
    {
      "inputs": [
        {
          "internalType": "address",
          "name": "_campaign",
          "type": "address"
        }
      ],
      "name": "cancelCampaign",
      "outputs": [],
      "stateMutability": "nonpayable",
      "type": "function"
    }
  ],
  "bytecode": "0x608060405260006005553480156200001657600080fd5b5060405162001c5238038062001c5283398181016040528101906200003c919062000231565b600073ffffffffffffffffffffffffffffffffffffffff163373ffffffffffffffffffffffffffffffffffffffff1614156200007757600080fd5b80600260006101000a81548173ffffffffffffffffffffffffffffffffffffffff021916908373ffffffffffffffffffffffffffffffffffffffff160217905550816003819055508260069080519060200190620000d7929190620000e1565b5050505062000443565b828054620000ef906200037b565b90600052602060002090601f0160209004810192826200011357600085556200015f565b82601f106200012e57805160ff19168380011785556200015f565b828001600101855582156200015f579182015b828111156200015e57825182559160200191906001019062000141565b5b5090506200016e919062000172565b5090565b5b808211156200018d57600081600090555060010162000173565b5090565b6000620001a8620001a284620002d4565b620002a0565b905082815260208101848484011115620001c157600080fd5b620001ce84828562000345565b509392505050565b600081519050620001e7816200040f565b92915050565b600082601f830112620001ff57600080fd5b81516200021184826020860162000191565b91505092915050565b6000815190506200022b8162000429565b92915050565b6000806000606084860312156200024757600080fd5b600084015167ffffffffffffffff8111156200026257600080fd5b6200027086828701620001ed565b935050602062000283868287016200021a565b92505060406200029686828701620001d6565b9150509250925092565b6000604051905081810181811067ffffffffffffffff82111715620002ca57620002c9620003e0565b5b8060405250919050565b600067ffffffffffffffff821115620002f257620002f1620003e0565b5b601f19601f8301169050602081019050919050565b600062000314826200031b565b9050919050565b600073ffffffffffffffffffffffffffffffffffffffff82169050919050565b6000819050919050565b60005b838110156200036557808201518184015260208101905062000348565b8381111562000375576000848401525b50505050565b600060028204905060018216806200039457607f821691505b60208210811415620003ab57620003aa620003b1565b5b50919050565b7f4e487b7100000000000000000000000000000000000000000000000000000000600052602260045260246000fd5b7f4e487b7100000000000000000000000000000000000000000000000000000000600052604160045260246000fd5b6200041a8162000307565b81146200042657600080fd5b50565b62000434816200033b565b81146200044057600080fd5b50565b6117ff80620004536000396000f3fe6080604052600436106101095760003560e01c80638485648211610095578063a91b831411610064578063a91b83141461038b578063d7bb99ba146103b4578063d7d1bbdb146103be578063e7b668b4146103e7578063f1e22a151461041057610109565b806384856482146102cd5780638a9cfd551461030c57806392053b6314610335578063937e09b11461036057610109565b8063481c6a75116100dc578063481c6a75146101ce5780635d0341ba146101f95780637284e4161461023657806381d12c581461026157806382fde093146102a257610109565b80630a1443911461010e5780630d6454a41461014b5780633410452a146101745780634051ddac1461019f575b600080fd5b34801561011a57600080fd5b506101356004803603810190610130919061122b565b61044d565b60405161014291906113d1565b60405180910390f35b34801561015757600080fd5b50610172600480360381019061016d919061122b565b61046d565b005b34801561018057600080fd5b5061018961055c565b6040516101969190611468565b60405180910390f35b3480156101ab57600080fd5b506101b4610568565b6040516101c59594939291906114c8565b60405180910390f35b3480156101da57600080fd5b506101e36105b1565b6040516101f091906113b6565b60405180910390f35b34801561020557600080fd5b50610220600480360381019061021b919061122b565b6105d7565b60405161022d91906113d1565b60405180910390f35b34801561024257600080fd5b5061024b6105f7565b60405161025891906113ec565b60405180910390f35b34801561026d57600080fd5b5061028860048036038101906102839190611327565b610685565b60405161029995949392919061140e565b60405180910390f35b3480156102ae57600080fd5b506102b7610780565b6040516102c49190611468565b60405180910390f35b3480156102d957600080fd5b506102f460048036038101906102ef9190611327565b610786565b60405161030393929190611483565b60405180910390f35b34801561031857600080fd5b50610333600480360381019061032e91906112c0565b6108c0565b005b34801561034157600080fd5b5061034a610a73565b6040516103579190611468565b60405180910390f35b34801561036c57600080fd5b50610375610a79565b6040516103829190611468565b60405180910390f35b34801561039757600080fd5b506103b260048036038101906103ad9190611254565b610a7f565b005b6103bc610c01565b005b3480156103ca57600080fd5b506103e560048036038101906103e09190611327565b610ce4565b005b3480156103f357600080fd5b5061040e60048036038101906104099190611327565b610e4d565b005b34801561041c57600080fd5b506104376004803603810190610432919061122b565b6110d6565b60405161044491906113d1565b60405180910390f35b60076020528060005260406000206000915054906101000a900460ff1681565b600073ffffffffffffffffffffffffffffffffffffffff163373ffffffffffffffffffffffffffffffffffffffff1614156104a757600080fd5b600260009054906101000a900473ffffffffffffffffffffffffffffffffffffffff1673ffffffffffffffffffffffffffffffffffffffff163373ffffffffffffffffffffffffffffffffffffffff161461050157600080fd5b6001600a60008373ffffffffffffffffffffffffffffffffffffffff1673ffffffffffffffffffffffffffffffffffffffff16815260200190815260200160002060006101000a81548160ff02191690831515021790555050565b60008080549050905090565b600080600080600060035447600080549050600454600260009054906101000a900473ffffffffffffffffffffffffffffffffffffffff16945094509450945094509091929394565b600260009054906101000a900473ffffffffffffffffffffffffffffffffffffffff1681565b60086020528060005260406000206000915054906101000a900460ff1681565b6006805461060490611653565b80601f016020809104026020016040519081016040528092919081815260200182805461063090611653565b801561067d5780601f106106525761010080835404028352916020019161067d565b820191906000526020600020905b81548152906001019060200180831161066057829003601f168201915b505050505081565b6000818154811061069557600080fd5b90600052602060002090600402016000915090508060000180546106b890611653565b80601f01602080910402602001604051908101604052809291908181526020018280546106e490611653565b80156107315780601f1061070657610100808354040283529160200191610731565b820191906000526020600020905b81548152906001019060200180831161071457829003601f168201915b5050505050908060010154908060020160009054906101000a900473ffffffffffffffffffffffffffffffffffffffff16908060020160149054906101000a900460ff16908060030154905085565b60045481565b60096020528060005260406000206000915090508060000154908060010180546107af90611653565b80601f01602080910402602001604051908101604052809291908181526020018280546107db90611653565b80156108285780601f106107fd57610100808354040283529160200191610828565b820191906000526020600020905b81548152906001019060200180831161080b57829003601f168201915b50505050509080600201805461083d90611653565b80601f016020809104026020016040519081016040528092919081815260200182805461086990611653565b80156108b65780601f1061088b576101008083540402835291602001916108b6565b820191906000526020600020905b81548152906001019060200180831161089957829003601f168201915b5050505050905083565b600073ffffffffffffffffffffffffffffffffffffffff163373ffffffffffffffffffffffffffffffffffffffff1614156108fa57600080fd5b600260009054906101000a900473ffffffffffffffffffffffffffffffffffffffff1673ffffffffffffffffffffffffffffffffffffffff163373ffffffffffffffffffffffffffffffffffffffff161461095457600080fd5b600083511161096257600080fd5b60006040518060a001604052808581526020018481526020018373ffffffffffffffffffffffffffffffffffffffff16815260200160001515815260200160008152509050600081908060018154018082558091505060019003906000526020600020906004020160009091909190915060008201518160000190805190602001906109ef9291906110f6565b506020820151816001015560408201518160020160006101000a81548173ffffffffffffffffffffffffffffffffffffffff021916908373ffffffffffffffffffffffffffffffffffffffff16021790555060608201518160020160146101000a81548160ff02191690831515021790555060808201518160030155505050505050565b60055481565b60035481565b600073ffffffffffffffffffffffffffffffffffffffff163373ffffffffffffffffffffffffffffffffffffffff161415610ab957600080fd5b600260009054906101000a900473ffffffffffffffffffffffffffffffffffffffff1673ffffffffffffffffffffffffffffffffffffffff163373ffffffffffffffffffffffffffffffffffffffff1614610b1357600080fd5b6000825111610b2157600080fd5b6000815111610b2f57600080fd5b60056000815480929190610b4290611685565b91905055506040518060600160405280600554815260200183815260200182815250600960006005548152602001908152602001600020600082015181600001556020820151816001019080519060200190610b9f9291906110f6565b506040820151816002019080519060200190610bbc9291906110f6565b509050507f640774224f0df7bbcf12f2b98b83311e0901c56985416fec1d91705f2829338e6005548383604051610bf593929190611483565b60405180910390a15050565b6003543411610c0f57600080fd5b6001339080600181540180825580915050600190039060005260206000200160009091909190916101000a81548173ffffffffffffffffffffffffffffffffffffffff021916908373ffffffffffffffffffffffffffffffffffffffff1602179055506001600760003373ffffffffffffffffffffffffffffffffffffffff1673ffffffffffffffffffffffffffffffffffffffff16815260200190815260200160002060006101000a81548160ff02191690831515021790555060046000815480929190610cdd90611685565b9190505550565b600760003373ffffffffffffffffffffffffffffffffffffffff1673ffffffffffffffffffffffffffffffffffffffff16815260200190815260200160002060009054906101000a900460ff16610d3a57600080fd5b600860003373ffffffffffffffffffffffffffffffffffffffff1673ffffffffffffffffffffffffffffffffffffffff16815260200190815260200160002060009054906101000a900460ff1615610d9157600080fd5b6001600860003373ffffffffffffffffffffffffffffffffffffffff1673ffffffffffffffffffffffffffffffffffffffff16815260200190815260200160002060006101000a81548160ff02191690831515021790555060008181548110610e23577f4e487b7100000000000000000000000000000000000000000000000000000000600052603260045260246000fd5b90600052602060002090600402016003016000815480929190610e4590611685565b919050555050565b600073ffffffffffffffffffffffffffffffffffffffff163373ffffffffffffffffffffffffffffffffffffffff161415610e8757600080fd5b600260009054906101000a900473ffffffffffffffffffffffffffffffffffffffff1673ffffffffffffffffffffffffffffffffffffffff163373ffffffffffffffffffffffffffffffffffffffff1614610ee157600080fd5b6000808281548110610f1c577f4e487b7100000000000000000000000000000000000000000000000000000000600052603260045260246000fd5b906000526020600020906004020190506002600454610f3b9190611598565b816003015411610f4a57600080fd5b8060020160149054906101000a900460ff1615610f6657600080fd5b8060020160009054906101000a900473ffffffffffffffffffffffffffffffffffffffff1673ffffffffffffffffffffffffffffffffffffffff166108fc82600101549081150290604051600060405180830381858888f19350505050158015610fd4573d6000803e3d6000fd5b5060018160020160146101000a81548160ff02191690831515021790555060005b6001805490508110156110d15760006008600060018481548110611042577f4e487b7100000000000000000000000000000000000000000000000000000000600052603260045260246000fd5b9060005260206000200160009054906101000a900473ffffffffffffffffffffffffffffffffffffffff1673ffffffffffffffffffffffffffffffffffffffff1673ffffffffffffffffffffffffffffffffffffffff16815260200190815260200160002060006101000a81548160ff02191690831515021790555080806110c990611685565b915050610ff5565b505050565b600a6020528060005260406000206000915054906101000a900460ff1681565b82805461110290611653565b90600052602060002090601f016020900481019282611124576000855561116b565b82601f1061113d57805160ff191683800117855561116b565b8280016001018555821561116b579182015b8281111561116a57825182559160200191906001019061114f565b5b509050611178919061117c565b5090565b5b8082111561119557600081600090555060010161117d565b5090565b60006111ac6111a78461154c565b61151b565b9050828152602081018484840111156111c457600080fd5b6111cf848285611611565b509392505050565b6000813590506111e68161179b565b92915050565b600082601f8301126111fd57600080fd5b813561120d848260208601611199565b91505092915050565b600081359050611225816117b2565b92915050565b60006020828403121561123d57600080fd5b600061124b848285016111d7565b91505092915050565b6000806040838503121561126757600080fd5b600083013567ffffffffffffffff81111561128157600080fd5b61128d858286016111ec565b925050602083013567ffffffffffffffff8111156112aa57600080fd5b6112b6858286016111ec565b9150509250929050565b6000806000606084860312156112d557600080fd5b600084013567ffffffffffffffff8111156112ef57600080fd5b6112fb868287016111ec565b935050602061130c86828701611216565b925050604061131d868287016111d7565b9150509250925092565b60006020828403121561133957600080fd5b600061134784828501611216565b91505092915050565b611359816115c9565b82525050565b611368816115db565b82525050565b60006113798261157c565b6113838185611587565b9350611393818560208601611620565b61139c8161178a565b840191505092915050565b6113b081611607565b82525050565b60006020820190506113cb6000830184611350565b92915050565b60006020820190506113e6600083018461135f565b92915050565b60006020820190508181036000830152611406818461136e565b905092915050565b600060a0820190508181036000830152611428818861136e565b905061143760208301876113a7565b6114446040830186611350565b611451606083018561135f565b61145e60808301846113a7565b9695505050505050565b600060208201905061147d60008301846113a7565b92915050565b600060608201905061149860008301866113a7565b81810360208301526114aa818561136e565b905081810360408301526114be818461136e565b9050949350505050565b600060a0820190506114dd60008301886113a7565b6114ea60208301876113a7565b6114f760408301866113a7565b61150460608301856113a7565b6115116080830184611350565b9695505050505050565b6000604051905081810181811067ffffffffffffffff821117156115425761154161175b565b5b8060405250919050565b600067ffffffffffffffff8211156115675761156661175b565b5b601f19601f8301169050602081019050919050565b600081519050919050565b600082825260208201905092915050565b60006115a382611607565b91506115ae83611607565b9250826115be576115bd6116fd565b5b828204905092915050565b60006115d4826115e7565b9050919050565b60008115159050919050565b600073ffffffffffffffffffffffffffffffffffffffff82169050919050565b6000819050919050565b82818337600083830152505050565b60005b8381101561163e578082015181840152602081019050611623565b8381111561164d576000848401525b50505050565b6000600282049050600182168061166b57607f821691505b6020821081141561167f5761167e61172c565b5b50919050565b600061169082611607565b91507fffffffffffffffffffffffffffffffffffffffffffffffffffffffffffffffff8214156116c3576116c26116ce565b5b600182019050919050565b7f4e487b7100000000000000000000000000000000000000000000000000000000600052601160045260246000fd5b7f4e487b7100000000000000000000000000000000000000000000000000000000600052601260045260246000fd5b7f4e487b7100000000000000000000000000000000000000000000000000000000600052602260045260246000fd5b7f4e487b7100000000000000000000000000000000000000000000000000000000600052604160045260246000fd5b6000601f19601f8301169050919050565b6117a4816115c9565b81146117af57600080fd5b50565b6117bb81611607565b81146117c657600080fd5b5056fea2646970667358221220a22ad5010c349b31c15ed40ce69b02f0de979c633ffd0836a0fddde513fcc56c64736f6c63430008000033",
  "immutableReferences": {},
  "source": "pragma solidity ^0.8.0;\n\n// SPDX-License-Identifier: MIT\n\ncontract Campaign {\n  struct Request {\n    string description;\n    uint256 value;\n    address recipient;\n    bool complete;\n    uint256 approvalCount;\n  }\n\n  struct Image {\n    uint256 id;\n    string hash;\n    string description;\n  }\n\n  event ImageCreated(uint256 id, string hash, string description);\n\n  Request[] public requests;\n  address[] approvalAddresses;\n  address public manager;\n  uint256 public minimumContribution;\n  uint256 public approversCount;\n  uint256 public imageCount = 0;\n  string public description;\n  mapping(address => bool) public approvers;\n  mapping(address => bool) public approvals;\n  mapping(uint256 => Image) public images;\n  mapping(address => bool) public cancelledCampaigns;\n\n  modifier restricted() {\n    require(msg.sender != address(0x0));\n    require(msg.sender == manager);\n    _;\n  }\n\n  constructor(\n    string memory _description,\n    uint256 _minimum,\n    address creator\n  ) {\n    require(msg.sender != address(0x0));\n    manager = creator;\n    minimumContribution = _minimum;\n    description = _description;\n  }\n\n  function contribute() public payable {\n    require(msg.value > minimumContribution);\n    approvalAddresses.push(msg.sender);\n    approvers[msg.sender] = true;\n    approversCount++;\n  }\n\n  function createRequest(\n    string memory _description,\n    uint256 _value,\n    address _recipient\n  ) public restricted {\n    require(bytes(_description).length > 0);\n\n    Request memory newRequest = Request({\n      description: _description,\n      value: _value,\n      recipient: _recipient,\n      complete: false,\n      approvalCount: 0\n    });\n    requests.push(newRequest);\n  }\n\n  function approveRequest(uint256 _index) public {\n    require(approvers[msg.sender]);\n    require(!approvals[msg.sender]);\n\n    approvals[msg.sender] = true;\n    requests[_index].approvalCount++;\n  }\n\n  function finaliseRequest(uint256 _index) public restricted {\n    Request storage request = requests[_index];\n\n    require(request.approvalCount > (approversCount / 2));\n    require(!request.complete);\n\n    payable(request.recipient).transfer(request.value);\n    request.complete = true;\n\n    for (uint256 i = 0; i < approvalAddresses.length; i++) {\n      approvals[approvalAddresses[i]] = false;\n    }\n  }\n\n  function getSummary()\n    public\n    view\n    returns (\n      uint256,\n      uint256,\n      uint256,\n      uint256,\n      address\n    )\n  {\n    return (\n      minimumContribution,\n      address(this).balance,\n      requests.length,\n      approversCount,\n      manager\n    );\n  }\n\n  function getRequestsCount() public view returns (uint256) {\n    return requests.length;\n  }\n\n  function uploadImage(string memory _imgHash, string memory _description)\n    public\n    restricted\n  {\n    require(bytes(_imgHash).length > 0);\n    require(bytes(_description).length > 0);\n\n    imageCount++;\n    images[imageCount] = Image(imageCount, _imgHash, _description);\n    emit ImageCreated(imageCount, _imgHash, _description);\n  }\n\n  function cancelCampaign(address _campaign) public restricted {\n    cancelledCampaigns[_campaign] = true;\n  }\n}\n",
  "sourcePath": "/Users/jamieanderson/Projects/portfolio/crypto-starter-react/src/contracts/Campaign.sol",
  "compiler": {
    "name": "solc",
    "version": "0.8.0+commit.c7dfd78e.Emscripten.clang"
  },
  "schemaVersion": "3.4.1",
  "updatedAt": "2021-11-04T06:52:57.139Z",
  "devdoc": {
    "kind": "dev",
    "methods": {},
    "version": 1
  },
  "userdoc": {
    "kind": "user",
    "methods": {},
    "version": 1
  }
}