{
  "contractName": "Campaign",
  "abi": [
    {
      "inputs": [
        {
          "internalType": "string",
          "name": "_description",
          "type": "string"
        },
        {
          "internalType": "uint256",
          "name": "_minimum",
          "type": "uint256"
        },
        {
          "internalType": "address",
          "name": "creator",
          "type": "address"
        }
      ],
      "stateMutability": "nonpayable",
      "type": "constructor"
    },
    {
      "inputs": [
        {
          "internalType": "address",
          "name": "",
          "type": "address"
        }
      ],
      "name": "approvals",
      "outputs": [
        {
          "internalType": "bool",
          "name": "",
          "type": "bool"
        }
      ],
      "stateMutability": "view",
      "type": "function"
    },
    {
      "inputs": [
        {
          "internalType": "address",
          "name": "",
          "type": "address"
        }
      ],
      "name": "approvers",
      "outputs": [
        {
          "internalType": "bool",
          "name": "",
          "type": "bool"
        }
      ],
      "stateMutability": "view",
      "type": "function"
    },
    {
      "inputs": [],
      "name": "approversCount",
      "outputs": [
        {
          "internalType": "uint256",
          "name": "",
          "type": "uint256"
        }
      ],
      "stateMutability": "view",
      "type": "function"
    },
    {
      "inputs": [],
      "name": "description",
      "outputs": [
        {
          "internalType": "string",
          "name": "",
          "type": "string"
        }
      ],
      "stateMutability": "view",
      "type": "function"
    },
    {
      "inputs": [],
      "name": "manager",
      "outputs": [
        {
          "internalType": "address",
          "name": "",
          "type": "address"
        }
      ],
      "stateMutability": "view",
      "type": "function"
    },
    {
      "inputs": [],
      "name": "minimumContribution",
      "outputs": [
        {
          "internalType": "uint256",
          "name": "",
          "type": "uint256"
        }
      ],
      "stateMutability": "view",
      "type": "function"
    },
    {
      "inputs": [
        {
          "internalType": "uint256",
          "name": "",
          "type": "uint256"
        }
      ],
      "name": "requests",
      "outputs": [
        {
          "internalType": "string",
          "name": "description",
          "type": "string"
        },
        {
          "internalType": "uint256",
          "name": "value",
          "type": "uint256"
        },
        {
          "internalType": "address",
          "name": "recipient",
          "type": "address"
        },
        {
          "internalType": "bool",
          "name": "complete",
          "type": "bool"
        },
        {
          "internalType": "uint256",
          "name": "approvalCount",
          "type": "uint256"
        }
      ],
      "stateMutability": "view",
      "type": "function"
    },
    {
      "inputs": [],
      "name": "contribute",
      "outputs": [],
      "stateMutability": "payable",
      "type": "function"
    },
    {
      "inputs": [
        {
          "internalType": "string",
          "name": "_description",
          "type": "string"
        },
        {
          "internalType": "uint256",
          "name": "_value",
          "type": "uint256"
        },
        {
          "internalType": "address",
          "name": "_recipient",
          "type": "address"
        }
      ],
      "name": "createRequest",
      "outputs": [],
      "stateMutability": "nonpayable",
      "type": "function"
    },
    {
      "inputs": [
        {
          "internalType": "uint256",
          "name": "_index",
          "type": "uint256"
        }
      ],
      "name": "approveRequest",
      "outputs": [],
      "stateMutability": "nonpayable",
      "type": "function"
    },
    {
      "inputs": [
        {
          "internalType": "uint256",
          "name": "_index",
          "type": "uint256"
        }
      ],
      "name": "finaliseRequest",
      "outputs": [],
      "stateMutability": "nonpayable",
      "type": "function"
    },
    {
      "inputs": [],
      "name": "getSummary",
      "outputs": [
        {
          "internalType": "uint256",
          "name": "",
          "type": "uint256"
        },
        {
          "internalType": "uint256",
          "name": "",
          "type": "uint256"
        },
        {
          "internalType": "uint256",
          "name": "",
          "type": "uint256"
        },
        {
          "internalType": "uint256",
          "name": "",
          "type": "uint256"
        },
        {
          "internalType": "address",
          "name": "",
          "type": "address"
        }
      ],
      "stateMutability": "view",
      "type": "function"
    },
    {
      "inputs": [],
      "name": "getRequestsCount",
      "outputs": [
        {
          "internalType": "uint256",
          "name": "",
          "type": "uint256"
        }
      ],
      "stateMutability": "view",
      "type": "function"
    }
  ],
  "bytecode": "0x60806040523480156200001157600080fd5b506040516200148b3803806200148b8339818101604052810190620000379190620001f1565b80600160006101000a81548173ffffffffffffffffffffffffffffffffffffffff021916908373ffffffffffffffffffffffffffffffffffffffff16021790555081600281905550826003908051906020019062000097929190620000a1565b5050505062000403565b828054620000af906200033b565b90600052602060002090601f016020900481019282620000d357600085556200011f565b82601f10620000ee57805160ff19168380011785556200011f565b828001600101855582156200011f579182015b828111156200011e57825182559160200191906001019062000101565b5b5090506200012e919062000132565b5090565b5b808211156200014d57600081600090555060010162000133565b5090565b600062000168620001628462000294565b62000260565b9050828152602081018484840111156200018157600080fd5b6200018e84828562000305565b509392505050565b600081519050620001a781620003cf565b92915050565b600082601f830112620001bf57600080fd5b8151620001d184826020860162000151565b91505092915050565b600081519050620001eb81620003e9565b92915050565b6000806000606084860312156200020757600080fd5b600084015167ffffffffffffffff8111156200022257600080fd5b6200023086828701620001ad565b93505060206200024386828701620001da565b9250506040620002568682870162000196565b9150509250925092565b6000604051905081810181811067ffffffffffffffff821117156200028a5762000289620003a0565b5b8060405250919050565b600067ffffffffffffffff821115620002b257620002b1620003a0565b5b601f19601f8301169050602081019050919050565b6000620002d482620002db565b9050919050565b600073ffffffffffffffffffffffffffffffffffffffff82169050919050565b6000819050919050565b60005b838110156200032557808201518184015260208101905062000308565b8381111562000335576000848401525b50505050565b600060028204905060018216806200035457607f821691505b602082108114156200036b576200036a62000371565b5b50919050565b7f4e487b7100000000000000000000000000000000000000000000000000000000600052602260045260246000fd5b7f4e487b7100000000000000000000000000000000000000000000000000000000600052604160045260246000fd5b620003da81620002c7565b8114620003e657600080fd5b50565b620003f481620002fb565b81146200040057600080fd5b50565b61107880620004136000396000f3fe6080604052600436106100c25760003560e01c806381d12c581161007f578063937e09b111610059578063937e09b114610286578063d7bb99ba146102b1578063d7d1bbdb146102bb578063e7b668b4146102e4576100c2565b806381d12c58146101f157806382fde093146102325780638a9cfd551461025d576100c2565b80630a144391146100c75780633410452a146101045780634051ddac1461012f578063481c6a751461015e5780635d0341ba146101895780637284e416146101c6575b600080fd5b3480156100d357600080fd5b506100ee60048036038101906100e99190610b55565b61030d565b6040516100fb9190610c8f565b60405180910390f35b34801561011057600080fd5b5061011961032d565b6040516101269190610d26565b60405180910390f35b34801561013b57600080fd5b50610144610339565b604051610155959493929190610d41565b60405180910390f35b34801561016a57600080fd5b50610173610382565b6040516101809190610c74565b60405180910390f35b34801561019557600080fd5b506101b060048036038101906101ab9190610b55565b6103a8565b6040516101bd9190610c8f565b60405180910390f35b3480156101d257600080fd5b506101db6103c8565b6040516101e89190610caa565b60405180910390f35b3480156101fd57600080fd5b5061021860048036038101906102139190610be5565b610456565b604051610229959493929190610ccc565b60405180910390f35b34801561023e57600080fd5b50610247610551565b6040516102549190610d26565b60405180910390f35b34801561026957600080fd5b50610284600480360381019061027f9190610b7e565b610557565b005b34801561029257600080fd5b5061029b6106c2565b6040516102a89190610d26565b60405180910390f35b6102b96106c8565b005b3480156102c757600080fd5b506102e260048036038101906102dd9190610be5565b610748565b005b3480156102f057600080fd5b5061030b60048036038101906103069190610be5565b6108b1565b005b60056020528060005260406000206000915054906101000a900460ff1681565b60008080549050905090565b600080600080600060025447600080549050600454600160009054906101000a900473ffffffffffffffffffffffffffffffffffffffff16945094509450945094509091929394565b600160009054906101000a900473ffffffffffffffffffffffffffffffffffffffff1681565b60066020528060005260406000206000915054906101000a900460ff1681565b600380546103d590610ecc565b80601f016020809104026020016040519081016040528092919081815260200182805461040190610ecc565b801561044e5780601f106104235761010080835404028352916020019161044e565b820191906000526020600020905b81548152906001019060200180831161043157829003601f168201915b505050505081565b6000818154811061046657600080fd5b906000526020600020906004020160009150905080600001805461048990610ecc565b80601f01602080910402602001604051908101604052809291908181526020018280546104b590610ecc565b80156105025780601f106104d757610100808354040283529160200191610502565b820191906000526020600020905b8154815290600101906020018083116104e557829003601f168201915b5050505050908060010154908060020160009054906101000a900473ffffffffffffffffffffffffffffffffffffffff16908060020160149054906101000a900460ff16908060030154905085565b60045481565b600160009054906101000a900473ffffffffffffffffffffffffffffffffffffffff1673ffffffffffffffffffffffffffffffffffffffff163373ffffffffffffffffffffffffffffffffffffffff16146105b157600080fd5b60006040518060a001604052808581526020018481526020018373ffffffffffffffffffffffffffffffffffffffff168152602001600015158152602001600081525090506000819080600181540180825580915050600190039060005260206000209060040201600090919091909150600082015181600001908051906020019061063e929190610a20565b506020820151816001015560408201518160020160006101000a81548173ffffffffffffffffffffffffffffffffffffffff021916908373ffffffffffffffffffffffffffffffffffffffff16021790555060608201518160020160146101000a81548160ff02191690831515021790555060808201518160030155505050505050565b60025481565b60025434116106d657600080fd5b6001600560003373ffffffffffffffffffffffffffffffffffffffff1673ffffffffffffffffffffffffffffffffffffffff16815260200190815260200160002060006101000a81548160ff0219169083151502179055506004600081548092919061074190610efe565b9190505550565b600560003373ffffffffffffffffffffffffffffffffffffffff1673ffffffffffffffffffffffffffffffffffffffff16815260200190815260200160002060009054906101000a900460ff1661079e57600080fd5b600660003373ffffffffffffffffffffffffffffffffffffffff1673ffffffffffffffffffffffffffffffffffffffff16815260200190815260200160002060009054906101000a900460ff16156107f557600080fd5b6001600660003373ffffffffffffffffffffffffffffffffffffffff1673ffffffffffffffffffffffffffffffffffffffff16815260200190815260200160002060006101000a81548160ff02191690831515021790555060008181548110610887577f4e487b7100000000000000000000000000000000000000000000000000000000600052603260045260246000fd5b906000526020600020906004020160030160008154809291906108a990610efe565b919050555050565b600160009054906101000a900473ffffffffffffffffffffffffffffffffffffffff1673ffffffffffffffffffffffffffffffffffffffff163373ffffffffffffffffffffffffffffffffffffffff161461090b57600080fd5b6000808281548110610946577f4e487b7100000000000000000000000000000000000000000000000000000000600052603260045260246000fd5b9060005260206000209060040201905060026004546109659190610e11565b81600301541161097457600080fd5b8060020160149054906101000a900460ff161561099057600080fd5b8060020160009054906101000a900473ffffffffffffffffffffffffffffffffffffffff1673ffffffffffffffffffffffffffffffffffffffff166108fc82600101549081150290604051600060405180830381858888f193505050501580156109fe573d6000803e3d6000fd5b5060018160020160146101000a81548160ff0219169083151502179055505050565b828054610a2c90610ecc565b90600052602060002090601f016020900481019282610a4e5760008555610a95565b82601f10610a6757805160ff1916838001178555610a95565b82800160010185558215610a95579182015b82811115610a94578251825591602001919060010190610a79565b5b509050610aa29190610aa6565b5090565b5b80821115610abf576000816000905550600101610aa7565b5090565b6000610ad6610ad184610dc5565b610d94565b905082815260208101848484011115610aee57600080fd5b610af9848285610e8a565b509392505050565b600081359050610b1081611014565b92915050565b600082601f830112610b2757600080fd5b8135610b37848260208601610ac3565b91505092915050565b600081359050610b4f8161102b565b92915050565b600060208284031215610b6757600080fd5b6000610b7584828501610b01565b91505092915050565b600080600060608486031215610b9357600080fd5b600084013567ffffffffffffffff811115610bad57600080fd5b610bb986828701610b16565b9350506020610bca86828701610b40565b9250506040610bdb86828701610b01565b9150509250925092565b600060208284031215610bf757600080fd5b6000610c0584828501610b40565b91505092915050565b610c1781610e42565b82525050565b610c2681610e54565b82525050565b6000610c3782610df5565b610c418185610e00565b9350610c51818560208601610e99565b610c5a81611003565b840191505092915050565b610c6e81610e80565b82525050565b6000602082019050610c896000830184610c0e565b92915050565b6000602082019050610ca46000830184610c1d565b92915050565b60006020820190508181036000830152610cc48184610c2c565b905092915050565b600060a0820190508181036000830152610ce68188610c2c565b9050610cf56020830187610c65565b610d026040830186610c0e565b610d0f6060830185610c1d565b610d1c6080830184610c65565b9695505050505050565b6000602082019050610d3b6000830184610c65565b92915050565b600060a082019050610d566000830188610c65565b610d636020830187610c65565b610d706040830186610c65565b610d7d6060830185610c65565b610d8a6080830184610c0e565b9695505050505050565b6000604051905081810181811067ffffffffffffffff82111715610dbb57610dba610fd4565b5b8060405250919050565b600067ffffffffffffffff821115610de057610ddf610fd4565b5b601f19601f8301169050602081019050919050565b600081519050919050565b600082825260208201905092915050565b6000610e1c82610e80565b9150610e2783610e80565b925082610e3757610e36610f76565b5b828204905092915050565b6000610e4d82610e60565b9050919050565b60008115159050919050565b600073ffffffffffffffffffffffffffffffffffffffff82169050919050565b6000819050919050565b82818337600083830152505050565b60005b83811015610eb7578082015181840152602081019050610e9c565b83811115610ec6576000848401525b50505050565b60006002820490506001821680610ee457607f821691505b60208210811415610ef857610ef7610fa5565b5b50919050565b6000610f0982610e80565b91507fffffffffffffffffffffffffffffffffffffffffffffffffffffffffffffffff821415610f3c57610f3b610f47565b5b600182019050919050565b7f4e487b7100000000000000000000000000000000000000000000000000000000600052601160045260246000fd5b7f4e487b7100000000000000000000000000000000000000000000000000000000600052601260045260246000fd5b7f4e487b7100000000000000000000000000000000000000000000000000000000600052602260045260246000fd5b7f4e487b7100000000000000000000000000000000000000000000000000000000600052604160045260246000fd5b6000601f19601f8301169050919050565b61101d81610e42565b811461102857600080fd5b50565b61103481610e80565b811461103f57600080fd5b5056fea2646970667358221220183cce95e3f7ac367e9ca8791176f0d5e0b7e4c166b60a2f79ced6d726f940c664736f6c63430008000033",
  "immutableReferences": {},
  "source": "pragma solidity ^0.8.0;\n\n// SPDX-License-Identifier: MIT\n\ncontract Campaign {\n  struct Request {\n    string description;\n    uint256 value;\n    address recipient;\n    bool complete;\n    uint256 approvalCount;\n  }\n\n  Request[] public requests;\n  address public manager;\n  uint256 public minimumContribution;\n  string public description;\n  uint256 public approversCount;\n  mapping(address => bool) public approvers;\n  mapping(address => bool) public approvals;\n\n  modifier restricted() {\n    require(msg.sender == manager);\n    _;\n  }\n\n  constructor(\n    string memory _description,\n    uint256 _minimum,\n    address creator\n  ) {\n    manager = creator;\n    minimumContribution = _minimum;\n    description = _description;\n  }\n\n  function contribute() public payable {\n    require(msg.value > minimumContribution);\n    approvers[msg.sender] = true;\n    approversCount++;\n  }\n\n  function createRequest(\n    string memory _description,\n    uint256 _value,\n    address _recipient\n  ) public restricted {\n    Request memory newRequest = Request({\n      description: _description,\n      value: _value,\n      recipient: _recipient,\n      complete: false,\n      approvalCount: 0\n    });\n    requests.push(newRequest);\n  }\n\n  function approveRequest(uint256 _index) public {\n    require(approvers[msg.sender]);\n    require(!approvals[msg.sender]);\n\n    approvals[msg.sender] = true;\n    requests[_index].approvalCount++;\n  }\n\n  function finaliseRequest(uint256 _index) public restricted {\n    Request storage request = requests[_index];\n\n    require(request.approvalCount > (approversCount / 2));\n    require(!request.complete);\n\n    payable(request.recipient).transfer(request.value);\n    request.complete = true;\n  }\n\n  function getSummary()\n    public\n    view\n    returns (\n      uint256,\n      uint256,\n      uint256,\n      uint256,\n      address\n    )\n  {\n    return (\n      minimumContribution,\n      address(this).balance,\n      requests.length,\n      approversCount,\n      manager\n    );\n  }\n\n  function getRequestsCount() public view returns (uint256) {\n    return requests.length;\n  }\n}\n",
  "sourcePath": "/Users/jamieanderson/Projects/portfolio/crypto-starter-react/src/contracts/Campaign.sol",
  "compiler": {
    "name": "solc",
    "version": "0.8.0+commit.c7dfd78e.Emscripten.clang"
  },
  "schemaVersion": "3.4.1",
  "updatedAt": "2021-08-21T12:11:31.549Z",
  "devdoc": {
    "kind": "dev",
    "methods": {},
    "version": 1
  },
  "userdoc": {
    "kind": "user",
    "methods": {},
    "version": 1
  }
}