{
  "contractName": "Campaign",
  "abi": [
    {
      "inputs": [
        {
          "internalType": "string",
          "name": "_description",
          "type": "string"
        },
        {
          "internalType": "uint256",
          "name": "_minimum",
          "type": "uint256"
        },
        {
          "internalType": "address",
          "name": "creator",
          "type": "address"
        }
      ],
      "stateMutability": "nonpayable",
      "type": "constructor"
    },
    {
      "anonymous": false,
      "inputs": [
        {
          "indexed": false,
          "internalType": "uint256",
          "name": "id",
          "type": "uint256"
        },
        {
          "indexed": false,
          "internalType": "string",
          "name": "hash",
          "type": "string"
        },
        {
          "indexed": false,
          "internalType": "string",
          "name": "description",
          "type": "string"
        }
      ],
      "name": "ImageCreated",
      "type": "event"
    },
    {
      "inputs": [
        {
          "internalType": "address",
          "name": "",
          "type": "address"
        }
      ],
      "name": "approvals",
      "outputs": [
        {
          "internalType": "bool",
          "name": "",
          "type": "bool"
        }
      ],
      "stateMutability": "view",
      "type": "function"
    },
    {
      "inputs": [
        {
          "internalType": "address",
          "name": "",
          "type": "address"
        }
      ],
      "name": "approvers",
      "outputs": [
        {
          "internalType": "bool",
          "name": "",
          "type": "bool"
        }
      ],
      "stateMutability": "view",
      "type": "function"
    },
    {
      "inputs": [],
      "name": "approversCount",
      "outputs": [
        {
          "internalType": "uint256",
          "name": "",
          "type": "uint256"
        }
      ],
      "stateMutability": "view",
      "type": "function"
    },
    {
      "inputs": [
        {
          "internalType": "address",
          "name": "",
          "type": "address"
        }
      ],
      "name": "cancelledCampaigns",
      "outputs": [
        {
          "internalType": "bool",
          "name": "",
          "type": "bool"
        }
      ],
      "stateMutability": "view",
      "type": "function"
    },
    {
      "inputs": [],
      "name": "description",
      "outputs": [
        {
          "internalType": "string",
          "name": "",
          "type": "string"
        }
      ],
      "stateMutability": "view",
      "type": "function"
    },
    {
      "inputs": [],
      "name": "imageCount",
      "outputs": [
        {
          "internalType": "uint256",
          "name": "",
          "type": "uint256"
        }
      ],
      "stateMutability": "view",
      "type": "function"
    },
    {
      "inputs": [
        {
          "internalType": "uint256",
          "name": "",
          "type": "uint256"
        }
      ],
      "name": "images",
      "outputs": [
        {
          "internalType": "uint256",
          "name": "id",
          "type": "uint256"
        },
        {
          "internalType": "string",
          "name": "hash",
          "type": "string"
        },
        {
          "internalType": "string",
          "name": "description",
          "type": "string"
        }
      ],
      "stateMutability": "view",
      "type": "function"
    },
    {
      "inputs": [],
      "name": "manager",
      "outputs": [
        {
          "internalType": "address",
          "name": "",
          "type": "address"
        }
      ],
      "stateMutability": "view",
      "type": "function"
    },
    {
      "inputs": [],
      "name": "minimumContribution",
      "outputs": [
        {
          "internalType": "uint256",
          "name": "",
          "type": "uint256"
        }
      ],
      "stateMutability": "view",
      "type": "function"
    },
    {
      "inputs": [
        {
          "internalType": "uint256",
          "name": "",
          "type": "uint256"
        }
      ],
      "name": "requests",
      "outputs": [
        {
          "internalType": "string",
          "name": "description",
          "type": "string"
        },
        {
          "internalType": "uint256",
          "name": "value",
          "type": "uint256"
        },
        {
          "internalType": "address",
          "name": "recipient",
          "type": "address"
        },
        {
          "internalType": "bool",
          "name": "complete",
          "type": "bool"
        },
        {
          "internalType": "uint256",
          "name": "approvalCount",
          "type": "uint256"
        }
      ],
      "stateMutability": "view",
      "type": "function"
    },
    {
      "inputs": [],
      "name": "contribute",
      "outputs": [],
      "stateMutability": "payable",
      "type": "function"
    },
    {
      "inputs": [
        {
          "internalType": "string",
          "name": "_description",
          "type": "string"
        },
        {
          "internalType": "uint256",
          "name": "_value",
          "type": "uint256"
        },
        {
          "internalType": "address",
          "name": "_recipient",
          "type": "address"
        }
      ],
      "name": "createRequest",
      "outputs": [],
      "stateMutability": "nonpayable",
      "type": "function"
    },
    {
      "inputs": [
        {
          "internalType": "uint256",
          "name": "_index",
          "type": "uint256"
        }
      ],
      "name": "approveRequest",
      "outputs": [],
      "stateMutability": "nonpayable",
      "type": "function"
    },
    {
      "inputs": [
        {
          "internalType": "uint256",
          "name": "_index",
          "type": "uint256"
        }
      ],
      "name": "finaliseRequest",
      "outputs": [],
      "stateMutability": "nonpayable",
      "type": "function"
    },
    {
      "inputs": [],
      "name": "getSummary",
      "outputs": [
        {
          "internalType": "uint256",
          "name": "",
          "type": "uint256"
        },
        {
          "internalType": "uint256",
          "name": "",
          "type": "uint256"
        },
        {
          "internalType": "uint256",
          "name": "",
          "type": "uint256"
        },
        {
          "internalType": "uint256",
          "name": "",
          "type": "uint256"
        },
        {
          "internalType": "address",
          "name": "",
          "type": "address"
        }
      ],
      "stateMutability": "view",
      "type": "function"
    },
    {
      "inputs": [],
      "name": "getRequestsCount",
      "outputs": [
        {
          "internalType": "uint256",
          "name": "",
          "type": "uint256"
        }
      ],
      "stateMutability": "view",
      "type": "function"
    },
    {
      "inputs": [
        {
          "internalType": "string",
          "name": "_imgHash",
          "type": "string"
        },
        {
          "internalType": "string",
          "name": "_description",
          "type": "string"
        }
      ],
      "name": "uploadImage",
      "outputs": [],
      "stateMutability": "nonpayable",
      "type": "function"
    },
    {
      "inputs": [
        {
          "internalType": "address",
          "name": "_campaign",
          "type": "address"
        }
      ],
      "name": "cancelCampaign",
      "outputs": [],
      "stateMutability": "nonpayable",
      "type": "function"
    }
  ],
  "bytecode": "0x608060405260006005553480156200001657600080fd5b5060405162001b0f38038062001b0f83398181016040528101906200003c919062000231565b600073ffffffffffffffffffffffffffffffffffffffff163373ffffffffffffffffffffffffffffffffffffffff1614156200007757600080fd5b80600160006101000a81548173ffffffffffffffffffffffffffffffffffffffff021916908373ffffffffffffffffffffffffffffffffffffffff160217905550816002819055508260039080519060200190620000d7929190620000e1565b5050505062000443565b828054620000ef906200037b565b90600052602060002090601f0160209004810192826200011357600085556200015f565b82601f106200012e57805160ff19168380011785556200015f565b828001600101855582156200015f579182015b828111156200015e57825182559160200191906001019062000141565b5b5090506200016e919062000172565b5090565b5b808211156200018d57600081600090555060010162000173565b5090565b6000620001a8620001a284620002d4565b620002a0565b905082815260208101848484011115620001c157600080fd5b620001ce84828562000345565b509392505050565b600081519050620001e7816200040f565b92915050565b600082601f830112620001ff57600080fd5b81516200021184826020860162000191565b91505092915050565b6000815190506200022b8162000429565b92915050565b6000806000606084860312156200024757600080fd5b600084015167ffffffffffffffff8111156200026257600080fd5b6200027086828701620001ed565b935050602062000283868287016200021a565b92505060406200029686828701620001d6565b9150509250925092565b6000604051905081810181811067ffffffffffffffff82111715620002ca57620002c9620003e0565b5b8060405250919050565b600067ffffffffffffffff821115620002f257620002f1620003e0565b5b601f19601f8301169050602081019050919050565b600062000314826200031b565b9050919050565b600073ffffffffffffffffffffffffffffffffffffffff82169050919050565b6000819050919050565b60005b838110156200036557808201518184015260208101905062000348565b8381111562000375576000848401525b50505050565b600060028204905060018216806200039457607f821691505b60208210811415620003ab57620003aa620003b1565b5b50919050565b7f4e487b7100000000000000000000000000000000000000000000000000000000600052602260045260246000fd5b7f4e487b7100000000000000000000000000000000000000000000000000000000600052604160045260246000fd5b6200041a8162000307565b81146200042657600080fd5b50565b62000434816200033b565b81146200044057600080fd5b50565b6116bc80620004536000396000f3fe6080604052600436106101095760003560e01c80638485648211610095578063a91b831411610064578063a91b83141461038b578063d7bb99ba146103b4578063d7d1bbdb146103be578063e7b668b4146103e7578063f1e22a151461041057610109565b806384856482146102cd5780638a9cfd551461030c57806392053b6314610335578063937e09b11461036057610109565b8063481c6a75116100dc578063481c6a75146101ce5780635d0341ba146101f95780637284e4161461023657806381d12c581461026157806382fde093146102a257610109565b80630a1443911461010e5780630d6454a41461014b5780633410452a146101745780634051ddac1461019f575b600080fd5b34801561011a57600080fd5b50610135600480360381019061013091906110e8565b61044d565b604051610142919061128e565b60405180910390f35b34801561015757600080fd5b50610172600480360381019061016d91906110e8565b61046d565b005b34801561018057600080fd5b5061018961055c565b6040516101969190611325565b60405180910390f35b3480156101ab57600080fd5b506101b4610568565b6040516101c5959493929190611385565b60405180910390f35b3480156101da57600080fd5b506101e36105b1565b6040516101f09190611273565b60405180910390f35b34801561020557600080fd5b50610220600480360381019061021b91906110e8565b6105d7565b60405161022d919061128e565b60405180910390f35b34801561024257600080fd5b5061024b6105f7565b60405161025891906112a9565b60405180910390f35b34801561026d57600080fd5b50610288600480360381019061028391906111e4565b610685565b6040516102999594939291906112cb565b60405180910390f35b3480156102ae57600080fd5b506102b7610780565b6040516102c49190611325565b60405180910390f35b3480156102d957600080fd5b506102f460048036038101906102ef91906111e4565b610786565b60405161030393929190611340565b60405180910390f35b34801561031857600080fd5b50610333600480360381019061032e919061117d565b6108c0565b005b34801561034157600080fd5b5061034a610a73565b6040516103579190611325565b60405180910390f35b34801561036c57600080fd5b50610375610a79565b6040516103829190611325565b60405180910390f35b34801561039757600080fd5b506103b260048036038101906103ad9190611111565b610a7f565b005b6103bc610c01565b005b3480156103ca57600080fd5b506103e560048036038101906103e091906111e4565b610c81565b005b3480156103f357600080fd5b5061040e600480360381019061040991906111e4565b610dea565b005b34801561041c57600080fd5b50610437600480360381019061043291906110e8565b610f93565b604051610444919061128e565b60405180910390f35b60066020528060005260406000206000915054906101000a900460ff1681565b600073ffffffffffffffffffffffffffffffffffffffff163373ffffffffffffffffffffffffffffffffffffffff1614156104a757600080fd5b600160009054906101000a900473ffffffffffffffffffffffffffffffffffffffff1673ffffffffffffffffffffffffffffffffffffffff163373ffffffffffffffffffffffffffffffffffffffff161461050157600080fd5b6001600960008373ffffffffffffffffffffffffffffffffffffffff1673ffffffffffffffffffffffffffffffffffffffff16815260200190815260200160002060006101000a81548160ff02191690831515021790555050565b60008080549050905090565b600080600080600060025447600080549050600454600160009054906101000a900473ffffffffffffffffffffffffffffffffffffffff16945094509450945094509091929394565b600160009054906101000a900473ffffffffffffffffffffffffffffffffffffffff1681565b60076020528060005260406000206000915054906101000a900460ff1681565b6003805461060490611510565b80601f016020809104026020016040519081016040528092919081815260200182805461063090611510565b801561067d5780601f106106525761010080835404028352916020019161067d565b820191906000526020600020905b81548152906001019060200180831161066057829003601f168201915b505050505081565b6000818154811061069557600080fd5b90600052602060002090600402016000915090508060000180546106b890611510565b80601f01602080910402602001604051908101604052809291908181526020018280546106e490611510565b80156107315780601f1061070657610100808354040283529160200191610731565b820191906000526020600020905b81548152906001019060200180831161071457829003601f168201915b5050505050908060010154908060020160009054906101000a900473ffffffffffffffffffffffffffffffffffffffff16908060020160149054906101000a900460ff16908060030154905085565b60045481565b60086020528060005260406000206000915090508060000154908060010180546107af90611510565b80601f01602080910402602001604051908101604052809291908181526020018280546107db90611510565b80156108285780601f106107fd57610100808354040283529160200191610828565b820191906000526020600020905b81548152906001019060200180831161080b57829003601f168201915b50505050509080600201805461083d90611510565b80601f016020809104026020016040519081016040528092919081815260200182805461086990611510565b80156108b65780601f1061088b576101008083540402835291602001916108b6565b820191906000526020600020905b81548152906001019060200180831161089957829003601f168201915b5050505050905083565b600073ffffffffffffffffffffffffffffffffffffffff163373ffffffffffffffffffffffffffffffffffffffff1614156108fa57600080fd5b600160009054906101000a900473ffffffffffffffffffffffffffffffffffffffff1673ffffffffffffffffffffffffffffffffffffffff163373ffffffffffffffffffffffffffffffffffffffff161461095457600080fd5b600083511161096257600080fd5b60006040518060a001604052808581526020018481526020018373ffffffffffffffffffffffffffffffffffffffff16815260200160001515815260200160008152509050600081908060018154018082558091505060019003906000526020600020906004020160009091909190915060008201518160000190805190602001906109ef929190610fb3565b506020820151816001015560408201518160020160006101000a81548173ffffffffffffffffffffffffffffffffffffffff021916908373ffffffffffffffffffffffffffffffffffffffff16021790555060608201518160020160146101000a81548160ff02191690831515021790555060808201518160030155505050505050565b60055481565b60025481565b600073ffffffffffffffffffffffffffffffffffffffff163373ffffffffffffffffffffffffffffffffffffffff161415610ab957600080fd5b600160009054906101000a900473ffffffffffffffffffffffffffffffffffffffff1673ffffffffffffffffffffffffffffffffffffffff163373ffffffffffffffffffffffffffffffffffffffff1614610b1357600080fd5b6000825111610b2157600080fd5b6000815111610b2f57600080fd5b60056000815480929190610b4290611542565b91905055506040518060600160405280600554815260200183815260200182815250600860006005548152602001908152602001600020600082015181600001556020820151816001019080519060200190610b9f929190610fb3565b506040820151816002019080519060200190610bbc929190610fb3565b509050507f640774224f0df7bbcf12f2b98b83311e0901c56985416fec1d91705f2829338e6005548383604051610bf593929190611340565b60405180910390a15050565b6002543411610c0f57600080fd5b6001600660003373ffffffffffffffffffffffffffffffffffffffff1673ffffffffffffffffffffffffffffffffffffffff16815260200190815260200160002060006101000a81548160ff02191690831515021790555060046000815480929190610c7a90611542565b9190505550565b600660003373ffffffffffffffffffffffffffffffffffffffff1673ffffffffffffffffffffffffffffffffffffffff16815260200190815260200160002060009054906101000a900460ff16610cd757600080fd5b600760003373ffffffffffffffffffffffffffffffffffffffff1673ffffffffffffffffffffffffffffffffffffffff16815260200190815260200160002060009054906101000a900460ff1615610d2e57600080fd5b6001600760003373ffffffffffffffffffffffffffffffffffffffff1673ffffffffffffffffffffffffffffffffffffffff16815260200190815260200160002060006101000a81548160ff02191690831515021790555060008181548110610dc0577f4e487b7100000000000000000000000000000000000000000000000000000000600052603260045260246000fd5b90600052602060002090600402016003016000815480929190610de290611542565b919050555050565b600073ffffffffffffffffffffffffffffffffffffffff163373ffffffffffffffffffffffffffffffffffffffff161415610e2457600080fd5b600160009054906101000a900473ffffffffffffffffffffffffffffffffffffffff1673ffffffffffffffffffffffffffffffffffffffff163373ffffffffffffffffffffffffffffffffffffffff1614610e7e57600080fd5b6000808281548110610eb9577f4e487b7100000000000000000000000000000000000000000000000000000000600052603260045260246000fd5b906000526020600020906004020190506002600454610ed89190611455565b816003015411610ee757600080fd5b8060020160149054906101000a900460ff1615610f0357600080fd5b8060020160009054906101000a900473ffffffffffffffffffffffffffffffffffffffff1673ffffffffffffffffffffffffffffffffffffffff166108fc82600101549081150290604051600060405180830381858888f19350505050158015610f71573d6000803e3d6000fd5b5060018160020160146101000a81548160ff0219169083151502179055505050565b60096020528060005260406000206000915054906101000a900460ff1681565b828054610fbf90611510565b90600052602060002090601f016020900481019282610fe15760008555611028565b82601f10610ffa57805160ff1916838001178555611028565b82800160010185558215611028579182015b8281111561102757825182559160200191906001019061100c565b5b5090506110359190611039565b5090565b5b8082111561105257600081600090555060010161103a565b5090565b600061106961106484611409565b6113d8565b90508281526020810184848401111561108157600080fd5b61108c8482856114ce565b509392505050565b6000813590506110a381611658565b92915050565b600082601f8301126110ba57600080fd5b81356110ca848260208601611056565b91505092915050565b6000813590506110e28161166f565b92915050565b6000602082840312156110fa57600080fd5b600061110884828501611094565b91505092915050565b6000806040838503121561112457600080fd5b600083013567ffffffffffffffff81111561113e57600080fd5b61114a858286016110a9565b925050602083013567ffffffffffffffff81111561116757600080fd5b611173858286016110a9565b9150509250929050565b60008060006060848603121561119257600080fd5b600084013567ffffffffffffffff8111156111ac57600080fd5b6111b8868287016110a9565b93505060206111c9868287016110d3565b92505060406111da86828701611094565b9150509250925092565b6000602082840312156111f657600080fd5b6000611204848285016110d3565b91505092915050565b61121681611486565b82525050565b61122581611498565b82525050565b600061123682611439565b6112408185611444565b93506112508185602086016114dd565b61125981611647565b840191505092915050565b61126d816114c4565b82525050565b6000602082019050611288600083018461120d565b92915050565b60006020820190506112a3600083018461121c565b92915050565b600060208201905081810360008301526112c3818461122b565b905092915050565b600060a08201905081810360008301526112e5818861122b565b90506112f46020830187611264565b611301604083018661120d565b61130e606083018561121c565b61131b6080830184611264565b9695505050505050565b600060208201905061133a6000830184611264565b92915050565b60006060820190506113556000830186611264565b8181036020830152611367818561122b565b9050818103604083015261137b818461122b565b9050949350505050565b600060a08201905061139a6000830188611264565b6113a76020830187611264565b6113b46040830186611264565b6113c16060830185611264565b6113ce608083018461120d565b9695505050505050565b6000604051905081810181811067ffffffffffffffff821117156113ff576113fe611618565b5b8060405250919050565b600067ffffffffffffffff82111561142457611423611618565b5b601f19601f8301169050602081019050919050565b600081519050919050565b600082825260208201905092915050565b6000611460826114c4565b915061146b836114c4565b92508261147b5761147a6115ba565b5b828204905092915050565b6000611491826114a4565b9050919050565b60008115159050919050565b600073ffffffffffffffffffffffffffffffffffffffff82169050919050565b6000819050919050565b82818337600083830152505050565b60005b838110156114fb5780820151818401526020810190506114e0565b8381111561150a576000848401525b50505050565b6000600282049050600182168061152857607f821691505b6020821081141561153c5761153b6115e9565b5b50919050565b600061154d826114c4565b91507fffffffffffffffffffffffffffffffffffffffffffffffffffffffffffffffff8214156115805761157f61158b565b5b600182019050919050565b7f4e487b7100000000000000000000000000000000000000000000000000000000600052601160045260246000fd5b7f4e487b7100000000000000000000000000000000000000000000000000000000600052601260045260246000fd5b7f4e487b7100000000000000000000000000000000000000000000000000000000600052602260045260246000fd5b7f4e487b7100000000000000000000000000000000000000000000000000000000600052604160045260246000fd5b6000601f19601f8301169050919050565b61166181611486565b811461166c57600080fd5b50565b611678816114c4565b811461168357600080fd5b5056fea2646970667358221220128adc2ce3280652709930ebdbf18ae9bbf8123555ec69ee23900afcb637072864736f6c63430008000033",
  "immutableReferences": {},
  "source": "pragma solidity ^0.8.0;\n\n// SPDX-License-Identifier: MIT\n\ncontract Campaign {\n  struct Request {\n    string description;\n    uint256 value;\n    address recipient;\n    bool complete;\n    uint256 approvalCount;\n  }\n\n  struct Image {\n    uint256 id;\n    string hash;\n    string description;\n  }\n\n  event ImageCreated(uint256 id, string hash, string description);\n\n  Request[] public requests;\n  address public manager;\n  uint256 public minimumContribution;\n  string public description;\n  uint256 public approversCount;\n  uint256 public imageCount = 0;\n  mapping(address => bool) public approvers;\n  mapping(address => bool) public approvals;\n  mapping(uint256 => Image) public images;\n  mapping(address => bool) public cancelledCampaigns;\n\n  modifier restricted() {\n    require(msg.sender != address(0x0));\n    require(msg.sender == manager);\n    _;\n  }\n\n  constructor(\n    string memory _description,\n    uint256 _minimum,\n    address creator\n  ) {\n    require(msg.sender != address(0x0));\n    manager = creator;\n    minimumContribution = _minimum;\n    description = _description;\n  }\n\n  function contribute() public payable {\n    require(msg.value > minimumContribution);\n    approvers[msg.sender] = true;\n    approversCount++;\n  }\n\n  function createRequest(\n    string memory _description,\n    uint256 _value,\n    address _recipient\n  ) public restricted {\n    require(bytes(_description).length > 0);\n\n    Request memory newRequest = Request({\n      description: _description,\n      value: _value,\n      recipient: _recipient,\n      complete: false,\n      approvalCount: 0\n    });\n    requests.push(newRequest);\n  }\n\n  function approveRequest(uint256 _index) public {\n    require(approvers[msg.sender]);\n    require(!approvals[msg.sender]);\n\n    approvals[msg.sender] = true;\n    requests[_index].approvalCount++;\n  }\n\n  function finaliseRequest(uint256 _index) public restricted {\n    Request storage request = requests[_index];\n\n    require(request.approvalCount > (approversCount / 2));\n    require(!request.complete);\n\n    payable(request.recipient).transfer(request.value);\n    request.complete = true;\n  }\n\n  function getSummary()\n    public\n    view\n    returns (\n      uint256,\n      uint256,\n      uint256,\n      uint256,\n      address\n    )\n  {\n    return (\n      minimumContribution,\n      address(this).balance,\n      requests.length,\n      approversCount,\n      manager\n    );\n  }\n\n  function getRequestsCount() public view returns (uint256) {\n    return requests.length;\n  }\n\n  function uploadImage(string memory _imgHash, string memory _description)\n    public\n    restricted\n  {\n    require(bytes(_imgHash).length > 0);\n    require(bytes(_description).length > 0);\n\n    imageCount++;\n    images[imageCount] = Image(imageCount, _imgHash, _description);\n    emit ImageCreated(imageCount, _imgHash, _description);\n  }\n\n  function cancelCampaign(address _campaign) public restricted {\n    cancelledCampaigns[_campaign] = true;\n  }\n}\n",
  "sourcePath": "/Users/jamieanderson/Projects/portfolio/crypto-starter-react/src/contracts/Campaign.sol",
  "compiler": {
    "name": "solc",
    "version": "0.8.0+commit.c7dfd78e.Emscripten.clang"
  },
  "schemaVersion": "3.4.1",
  "updatedAt": "2021-08-26T08:35:08.299Z",
  "devdoc": {
    "kind": "dev",
    "methods": {},
    "version": 1
  },
  "userdoc": {
    "kind": "user",
    "methods": {},
    "version": 1
  }
}